{
  "_format": "hh-sol-artifact-1",
  "contractName": "Petos",
  "sourceName": "contracts/Petos.sol",
  "abi": [
    {
      "inputs": [
        {
          "internalType": "address payable",
          "name": "donationWallet",
          "type": "address"
        },
        {
          "internalType": "uint256",
          "name": "pOwner",
          "type": "uint256"
        },
        {
          "internalType": "uint256",
          "name": "prix",
          "type": "uint256"
        }
      ],
      "stateMutability": "nonpayable",
      "type": "constructor"
    },
    {
      "anonymous": false,
      "inputs": [
        {
          "indexed": true,
          "internalType": "address",
          "name": "owner",
          "type": "address"
        },
        {
          "indexed": true,
          "internalType": "address",
          "name": "approved",
          "type": "address"
        },
        {
          "indexed": true,
          "internalType": "uint256",
          "name": "tokenId",
          "type": "uint256"
        }
      ],
      "name": "Approval",
      "type": "event"
    },
    {
      "anonymous": false,
      "inputs": [
        {
          "indexed": true,
          "internalType": "address",
          "name": "owner",
          "type": "address"
        },
        {
          "indexed": true,
          "internalType": "address",
          "name": "operator",
          "type": "address"
        },
        {
          "indexed": false,
          "internalType": "bool",
          "name": "approved",
          "type": "bool"
        }
      ],
      "name": "ApprovalForAll",
      "type": "event"
    },
    {
      "anonymous": false,
      "inputs": [
        {
          "indexed": true,
          "internalType": "address",
          "name": "previousOwner",
          "type": "address"
        },
        {
          "indexed": true,
          "internalType": "address",
          "name": "newOwner",
          "type": "address"
        }
      ],
      "name": "OwnershipTransferred",
      "type": "event"
    },
    {
      "anonymous": false,
      "inputs": [
        {
          "indexed": true,
          "internalType": "address",
          "name": "from",
          "type": "address"
        },
        {
          "indexed": true,
          "internalType": "address",
          "name": "to",
          "type": "address"
        },
        {
          "indexed": true,
          "internalType": "uint256",
          "name": "tokenId",
          "type": "uint256"
        }
      ],
      "name": "Transfer",
      "type": "event"
    },
    {
      "inputs": [],
      "name": "_donationWallet",
      "outputs": [
        {
          "internalType": "address payable",
          "name": "",
          "type": "address"
        }
      ],
      "stateMutability": "view",
      "type": "function"
    },
    {
      "inputs": [],
      "name": "_pOwner",
      "outputs": [
        {
          "internalType": "uint256",
          "name": "",
          "type": "uint256"
        }
      ],
      "stateMutability": "view",
      "type": "function"
    },
    {
      "inputs": [
        {
          "internalType": "address",
          "name": "",
          "type": "address"
        }
      ],
      "name": "_pets",
      "outputs": [
        {
          "internalType": "bool",
          "name": "",
          "type": "bool"
        }
      ],
      "stateMutability": "view",
      "type": "function"
    },
    {
      "inputs": [],
      "name": "_prix",
      "outputs": [
        {
          "internalType": "uint256",
          "name": "",
          "type": "uint256"
        }
      ],
      "stateMutability": "view",
      "type": "function"
    },
    {
      "inputs": [
        {
          "internalType": "address",
          "name": "pet",
          "type": "address"
        }
      ],
      "name": "addPets",
      "outputs": [],
      "stateMutability": "nonpayable",
      "type": "function"
    },
    {
      "inputs": [
        {
          "internalType": "address",
          "name": "to",
          "type": "address"
        },
        {
          "internalType": "uint256",
          "name": "tokenId",
          "type": "uint256"
        }
      ],
      "name": "approve",
      "outputs": [],
      "stateMutability": "nonpayable",
      "type": "function"
    },
    {
      "inputs": [
        {
          "internalType": "address",
          "name": "owner",
          "type": "address"
        }
      ],
      "name": "balanceOf",
      "outputs": [
        {
          "internalType": "uint256",
          "name": "",
          "type": "uint256"
        }
      ],
      "stateMutability": "view",
      "type": "function"
    },
    {
      "inputs": [
        {
          "internalType": "address",
          "name": "pet",
          "type": "address"
        }
      ],
      "name": "deletePets",
      "outputs": [],
      "stateMutability": "nonpayable",
      "type": "function"
    },
    {
      "inputs": [
        {
          "internalType": "uint256",
          "name": "tokenId",
          "type": "uint256"
        }
      ],
      "name": "getApproved",
      "outputs": [
        {
          "internalType": "address",
          "name": "",
          "type": "address"
        }
      ],
      "stateMutability": "view",
      "type": "function"
    },
    {
      "inputs": [
        {
          "internalType": "address",
          "name": "owner",
          "type": "address"
        },
        {
          "internalType": "address",
          "name": "operator",
          "type": "address"
        }
      ],
      "name": "isApprovedForAll",
      "outputs": [
        {
          "internalType": "bool",
          "name": "",
          "type": "bool"
        }
      ],
      "stateMutability": "view",
      "type": "function"
    },
    {
      "inputs": [
        {
          "internalType": "address",
          "name": "pet",
          "type": "address"
        },
        {
          "internalType": "string[]",
          "name": "param",
          "type": "string[]"
        },
        {
          "internalType": "string",
          "name": "name",
          "type": "string"
        },
        {
          "internalType": "uint256",
          "name": "birthday",
          "type": "uint256"
        }
      ],
      "name": "mint",
      "outputs": [],
      "stateMutability": "payable",
      "type": "function"
    },
    {
      "inputs": [],
      "name": "name",
      "outputs": [
        {
          "internalType": "string",
          "name": "",
          "type": "string"
        }
      ],
      "stateMutability": "view",
      "type": "function"
    },
    {
      "inputs": [],
      "name": "nftMinted",
      "outputs": [
        {
          "internalType": "uint256",
          "name": "_value",
          "type": "uint256"
        }
      ],
      "stateMutability": "view",
      "type": "function"
    },
    {
      "inputs": [],
      "name": "owner",
      "outputs": [
        {
          "internalType": "address",
          "name": "",
          "type": "address"
        }
      ],
      "stateMutability": "view",
      "type": "function"
    },
    {
      "inputs": [
        {
          "internalType": "uint256",
          "name": "tokenId",
          "type": "uint256"
        }
      ],
      "name": "ownerOf",
      "outputs": [
        {
          "internalType": "address",
          "name": "",
          "type": "address"
        }
      ],
      "stateMutability": "view",
      "type": "function"
    },
    {
      "inputs": [],
      "name": "renounceOwnership",
      "outputs": [],
      "stateMutability": "nonpayable",
      "type": "function"
    },
    {
      "inputs": [
        {
          "internalType": "address",
          "name": "from",
          "type": "address"
        },
        {
          "internalType": "address",
          "name": "to",
          "type": "address"
        },
        {
          "internalType": "uint256",
          "name": "tokenId",
          "type": "uint256"
        }
      ],
      "name": "safeTransferFrom",
      "outputs": [],
      "stateMutability": "nonpayable",
      "type": "function"
    },
    {
      "inputs": [
        {
          "internalType": "address",
          "name": "from",
          "type": "address"
        },
        {
          "internalType": "address",
          "name": "to",
          "type": "address"
        },
        {
          "internalType": "uint256",
          "name": "tokenId",
          "type": "uint256"
        },
        {
          "internalType": "bytes",
          "name": "data",
          "type": "bytes"
        }
      ],
      "name": "safeTransferFrom",
      "outputs": [],
      "stateMutability": "nonpayable",
      "type": "function"
    },
    {
      "inputs": [
        {
          "internalType": "address",
          "name": "operator",
          "type": "address"
        },
        {
          "internalType": "bool",
          "name": "approved",
          "type": "bool"
        }
      ],
      "name": "setApprovalForAll",
      "outputs": [],
      "stateMutability": "nonpayable",
      "type": "function"
    },
    {
      "inputs": [
        {
          "internalType": "address payable",
          "name": "donationWallet",
          "type": "address"
        }
      ],
      "name": "setDonation",
      "outputs": [],
      "stateMutability": "nonpayable",
      "type": "function"
    },
    {
      "inputs": [
        {
          "internalType": "uint256",
          "name": "newPrix",
          "type": "uint256"
        }
      ],
      "name": "setPrix",
      "outputs": [],
      "stateMutability": "nonpayable",
      "type": "function"
    },
    {
      "inputs": [
        {
          "internalType": "bytes4",
          "name": "interfaceId",
          "type": "bytes4"
        }
      ],
      "name": "supportsInterface",
      "outputs": [
        {
          "internalType": "bool",
          "name": "",
          "type": "bool"
        }
      ],
      "stateMutability": "view",
      "type": "function"
    },
    {
      "inputs": [],
      "name": "symbol",
      "outputs": [
        {
          "internalType": "string",
          "name": "",
          "type": "string"
        }
      ],
      "stateMutability": "view",
      "type": "function"
    },
    {
      "inputs": [
        {
          "internalType": "uint256",
          "name": "tokenId",
          "type": "uint256"
        }
      ],
      "name": "tokenURI",
      "outputs": [
        {
          "internalType": "string",
          "name": "",
          "type": "string"
        }
      ],
      "stateMutability": "view",
      "type": "function"
    },
    {
      "inputs": [
        {
          "internalType": "address",
          "name": "from",
          "type": "address"
        },
        {
          "internalType": "address",
          "name": "to",
          "type": "address"
        },
        {
          "internalType": "uint256",
          "name": "tokenId",
          "type": "uint256"
        }
      ],
      "name": "transferFrom",
      "outputs": [],
      "stateMutability": "nonpayable",
      "type": "function"
    },
    {
      "inputs": [
        {
          "internalType": "address",
          "name": "newOwner",
          "type": "address"
        }
      ],
      "name": "transferOwnership",
      "outputs": [],
      "stateMutability": "nonpayable",
      "type": "function"
    },
    {
      "inputs": [],
      "name": "withdraw",
      "outputs": [],
      "stateMutability": "payable",
      "type": "function"
    }
  ],
  "bytecode": "0x608034620003ac576001600160401b0390601f90601f1962001ef238819003848101831684019190868311858410176200039657808592606094604052833981010312620003ac5781516001600160a01b03948582169291839003620003ac576020906040828601519501519562000076620003b1565b9260058452645065746f7360d81b8185015262000092620003b1565b90600382526250545360e81b8183015284519584871162000396576000968754966001978881811c911680156200038b575b85821014620003775790818784931162000324575b508490878311600114620002c3578a92620002b7575b5050600019600383901b1c191690871b1787555b8251948511620002a35785548681811c9116801562000298575b8382101462000284579081858796959493116200022b575b5081938511600114620001c65750508592620001ba575b5050600019600383901b1c191690821b1790555b60075460018060a01b03199133838316176007557f8be0079c531659141344cd1fd0a4f28419497f9722a3daafe3b4186f6b6457e0604051973393169180a36009541617600955600a55600b55611b209081620003d28239f35b0151905038806200014c565b869593929193168588528388209388905b828210620002115750508411620001f7575b505050811b01905562000160565b015160001960f88460031b161c19169055388080620001e9565b8484015186558897909501949384019390810190620001d7565b9091929394508688528288208580880160051c8201928589106200027a575b9188978a9297969594930160051c01915b8281106200026b57505062000135565b8a81558897508991016200025b565b925081926200024a565b634e487b7160e01b88526022600452602488fd5b90607f16906200011d565b634e487b7160e01b87526041600452602487fd5b015190503880620000ef565b90848a9416918b8052868c20928c5b888282106200030d5750508411620002f3575b505050811b01875562000103565b015160001960f88460031b161c19169055388080620002e5565b8385015186558d97909501949384019301620002d2565b909150898052848a208780850160051c8201928786106200036d575b918b91869594930160051c01915b8281106200035e575050620000d9565b8c81558594508b91016200034e565b9250819262000340565b634e487b7160e01b8a52602260045260248afd5b90607f1690620000c4565b634e487b7160e01b600052604160045260246000fd5b600080fd5b60408051919082016001600160401b03811183821017620003965760405256fe6080806040526004908136101561001557600080fd5b60003560e01c90816301ffc9a714611230575080630389a408146111eb57806306fdde0314611148578063081812fc1461112a578063095ea7b314610f96578063172798a214610f7857806323b872dd14610f54578063304c6c9214610f155780633651f5e414610ef7578063373c885b14610ed95780633ccfd60b14610e6857806342842e0e14610e355780636352211e14610e0657806368e432b214610d7757806370a0823114610cca578063715018a614610c6f57806373195e9d14610c2d5780638da5cb5b14610c0657806395d89b4114610b27578063a22cb46514610a54578063a37f4ea914610a2d578063b88d4fde146109aa578063bdd7f2951461098a578063c87b56dd1461087a578063cafbc4af1461027f578063e985e9c5146102285763f2fde38b1461014a57600080fd5b34610223576020366003190112610223576101636112fe565b61016b61146c565b6001600160a01b038091169182156101b95750600754826001600160a01b0319821617600755167f8be0079c531659141344cd1fd0a4f28419497f9722a3daafe3b4186f6b6457e0600080a3005b60849060206040519162461bcd60e51b8352820152602660248201527f4f776e61626c653a206e6577206f776e657220697320746865207a65726f206160448201527f64647265737300000000000000000000000000000000000000000000000000006064820152fd5b600080fd5b34610223576040366003190112610223576102416112fe565b610249611314565b906001600160a01b03809116600052600560205260406000209116600052602052602060ff604060002054166040519015158152f35b506080366003190112610223576102946112fe565b9060243567ffffffffffffffff8111610223573660238201121561022357808201359267ffffffffffffffff8411610865578360051b91604051946102dc60208501876113d9565b8552602085019060248294820101903682116102235760248101925b828410610835575050505060443567ffffffffffffffff811161022357610322903690850161144e565b916001600160a01b038216600052600c602052600160ff604060002054161515036107f157600b5434106107ad5760016008540192836008556040516020810181811067ffffffffffffffff821117610798576040526000815233156107545761043b610440916103b66103b0889a96959a60005260026020526001600160a01b0360406000205416151590565b15611a9f565b6103d96103b08860005260026020526001600160a01b0360406000205416151590565b3360005260036020526040600020600181540190558660005260026020526040600020336001600160a01b0319825416179055863360007fddf252ad1be2c89b69c2b068fc378daa952ba7f163c4a11628f55a4df523b3ef8180a486336118c1565b611619565b6040519586927f2645cbb600000000000000000000000000000000000000000000000000000000845260848401908688860152608060248601525180915260a484019060a48160051b86010193916000905b82821061072457505050506001600160a01b03836104c060009694829460031984830301604485015261134d565b60643560648301520392165afa9283156107185760009361069c575b506104fd8160005260026020526001600160a01b0360406000205416151590565b1561063257600052600660205260406000209082519067ffffffffffffffff821161061d575061052d8254611531565b601f81116105d5575b50602092601f82116001146105745792819293600092610569575b5050600019600383901b1c191660019190911b179055005b015190503880610551565b601f198216938360005260206000209160005b8681106105bd57508360019596106105a4575b505050811b019055005b015160001960f88460031b161c1916905538808061059a565b91926020600181928685015181550194019201610587565b826000526020600020601f830160051c81019160208410610613575b601f0160051c01905b8181106106075750610536565b600081556001016105fa565b90915081906105f1565b604190634e487b7160e01b6000525260246000fd5b60848260206040519162461bcd60e51b8352820152602e60248201527f45524337323155524953746f726167653a2055524920736574206f66206e6f6e60448201527f6578697374656e7420746f6b656e0000000000000000000000000000000000006064820152fd5b9092503d806000833e6106af81836113d9565b8101906020818303126102235780519067ffffffffffffffff8211610223570181601f820112156102235780516106e5816113fb565b926106f360405194856113d9565b8184526020828401011161022357610711916020808501910161132a565b91386104dc565b6040513d6000823e3d90fd5b91939460206107438192600194969960a319908203018652895161134d565b970192019201899594939192610492565b60648660206040519162461bcd60e51b8352820152602060248201527f4552433732313a206d696e7420746f20746865207a65726f20616464726573736044820152fd5b604187634e487b7160e01b6000525260246000fd5b60648460206040519162461bcd60e51b8352820152600f60248201527f4e6f20456e6f756768204d6f6e657900000000000000000000000000000000006044820152fd5b60648460206040519162461bcd60e51b8352820152601660248201527f5468697320506574206e6f7420696e2073797374656d000000000000000000006044820152fd5b833567ffffffffffffffff81116102235760209161085a83926024369187010161144e565b8152019301926102f8565b604183634e487b7160e01b6000525260246000fd5b5034610223576020908160031936011261022357356108b76108b28260005260026020526001600160a01b0360406000205416151590565b6114c4565b600052600681526040600020906040519182600082546108d681611531565b93848452600191868382169182600014610968575050600114610929575b5050610902925003836113d9565b6000604051610910816113a7565b5261092560405192828493845283019061134d565b0390f35b85925060005281600020906000915b858310610950575050610902935082010138806108f4565b80548389018501528794508693909201918101610938565b925093505061090294915060ff191682840152151560051b82010138806108f4565b5034610223576020366003190112610223576109a461146c565b35600b55005b5034610223576080366003190112610223576109c46112fe565b906109cd611314565b916044356064359367ffffffffffffffff8511610223573660238601121561022357610a0861043b94866024610a2b98369301359101611417565b92610a1b610a16843361168b565b6115a8565b610a2683838361176a565b611a3e565b005b346102235760003660031901126102235760206001600160a01b0360095416604051908152f35b503461022357604036600319011261022357610a6e6112fe565b60243590811515809203610223576001600160a01b031691823314610ae35750336000526005602052604060002082600052602052604060002060ff1981541660ff83161790556040519081527f17307eab39ab6107e8899845ad3d59bd9653f200f220920489ca2b5937696c3160203392a3005b60649060206040519162461bcd60e51b8352820152601960248201527f4552433732313a20617070726f766520746f2063616c6c6572000000000000006044820152fd5b346102235760003660031901126102235760405160006001805490610b4b82611531565b80855291818116908115610bdf5750600114610b86575b61092584610b72818603826113d9565b60405191829160208352602083019061134d565b600081815292507fb10e2d527612073b26eecdfd717e6a320cf44b4afac2b0732d9fcbe2b7fa0cf65b828410610bc7575050508101602001610b7282610b62565b80546020858701810191909152909301928101610baf565b60ff191660208087019190915292151560051b85019092019250610b729150839050610b62565b346102235760003660031901126102235760206001600160a01b0360075416604051908152f35b34610223576020366003190112610223576001600160a01b03610c4e6112fe565b610c5661146c565b166000908152600c60205260409020805460ff19169055005b3461022357600036600319011261022357610c8861146c565b60006001600160a01b036007546001600160a01b03198116600755167f8be0079c531659141344cd1fd0a4f28419497f9722a3daafe3b4186f6b6457e08280a3005b5034610223576020366003190112610223576001600160a01b03610cec6112fe565b16908115610d0d575060005260036020526020604060002054604051908152f35b60849060206040519162461bcd60e51b8352820152602960248201527f4552433732313a2061646472657373207a65726f206973206e6f74206120766160448201527f6c6964206f776e657200000000000000000000000000000000000000000000006064820152fd5b5034610223576020366003190112610223578035906001600160a01b03821680920361022357610da561146c565b8115610dc257506001600160a01b03196009541617600955600080f35b60649060206040519162461bcd60e51b8352820152601660248201527f416464726573732063616e6e6f74206265207a65726f000000000000000000006044820152fd5b503461022357602036600319011261022357610e246020913561150f565b6001600160a01b0360405191168152f35b3461022357610a2b61043b610e4936611372565b9060405192610e57846113a7565b60008452610a1b610a16843361168b565b50600036600319011261022357600a5447918115610ec457506000808080936001600160a01b03950485600754165af1610ea0611891565b5015610223576000808080936009541647905af1610ebc611891565b501561022357005b601290634e487b7160e01b6000525260246000fd5b34610223576000366003190112610223576020600b54604051908152f35b34610223576000366003190112610223576020600854604051908152f35b34610223576020366003190112610223576001600160a01b03610f366112fe565b16600052600c602052602060ff604060002054166040519015158152f35b3461022357610a2b610f6536611372565b91610f73610a16843361168b565b61176a565b34610223576000366003190112610223576020600a54604051908152f35b503461022357604036600319011261022357610fb06112fe565b602435916001600160a01b03908180610fc88661150f565b169316928084146110c05780331490811561109b575b501561103157836000526020526040600020826001600160a01b03198254161790556110098361150f565b167f8c5be1e5ebec7d5bd14f71427d1e84f3dd0314c0f7b2291e5b200ac8c7c3b925600080a4005b60849060206040519162461bcd60e51b8352820152603d60248201527f4552433732313a20617070726f76652063616c6c6572206973206e6f7420746f60448201527f6b656e206f776e6572206f7220617070726f76656420666f7220616c6c0000006064820152fd5b9050600052600560205260406000203360005260205260ff6040600020541638610fde565b60848260206040519162461bcd60e51b8352820152602160248201527f4552433732313a20617070726f76616c20746f2063757272656e74206f776e6560448201527f72000000000000000000000000000000000000000000000000000000000000006064820152fd5b503461022357602036600319011261022357610e246020913561156b565b34610223576000366003190112610223576040516000805461116981611531565b80845290600190818116908115610bdf57506001146111925761092584610b72818603826113d9565b600080805292507f290decd9548b62a8d60345a988386fc84ba6bc95484008f6362f93160ef3e5635b8284106111d3575050508101602001610b7282610b62565b805460208587018101919091529093019281016111bb565b34610223576020366003190112610223576001600160a01b0361120c6112fe565b61121461146c565b166000908152600c60205260409020805460ff19166001179055005b82346102235760203660031901126102235735907fffffffff00000000000000000000000000000000000000000000000000000000821680920361022357817f80ac58cd00000000000000000000000000000000000000000000000000000000602093149081156112d4575b81156112aa575b5015158152f35b7f01ffc9a700000000000000000000000000000000000000000000000000000000915014836112a3565b7f5b5e139f000000000000000000000000000000000000000000000000000000008114915061129c565b600435906001600160a01b038216820361022357565b602435906001600160a01b038216820361022357565b60005b83811061133d5750506000910152565b818101518382015260200161132d565b906020916113668151809281855285808601910161132a565b601f01601f1916010190565b6060906003190112610223576001600160a01b0390600435828116810361022357916024359081168103610223579060443590565b6020810190811067ffffffffffffffff8211176113c357604052565b634e487b7160e01b600052604160045260246000fd5b90601f8019910116810190811067ffffffffffffffff8211176113c357604052565b67ffffffffffffffff81116113c357601f01601f191660200190565b929192611423826113fb565b9161143160405193846113d9565b829481845281830111610223578281602093846000960137010152565b9080601f830112156102235781602061146993359101611417565b90565b6001600160a01b0360075416330361148057565b606460405162461bcd60e51b815260206004820152602060248201527f4f776e61626c653a2063616c6c6572206973206e6f7420746865206f776e65726044820152fd5b156114cb57565b606460405162461bcd60e51b815260206004820152601860248201527f4552433732313a20696e76616c696420746f6b656e20494400000000000000006044820152fd5b60005260026020526001600160a01b03604060002054166114698115156114c4565b90600182811c92168015611561575b602083101461154b57565b634e487b7160e01b600052602260045260246000fd5b91607f1691611540565b61158e6108b28260005260026020526001600160a01b0360406000205416151590565b60005260046020526001600160a01b036040600020541690565b156115af57565b608460405162461bcd60e51b815260206004820152602d60248201527f4552433732313a2063616c6c6572206973206e6f7420746f6b656e206f776e6560448201527f72206f7220617070726f766564000000000000000000000000000000000000006064820152fd5b1561162057565b60405162461bcd60e51b815260206004820152603260248201527f4552433732313a207472616e7366657220746f206e6f6e20455243373231526560448201527f63656976657220696d706c656d656e74657200000000000000000000000000006064820152608490fd5b906001600160a01b03808061169f8461150f565b169316918383149384156116d2575b5083156116bc575b50505090565b6116c89192935061156b565b16143880806116b6565b909350600052600560205260406000208260005260205260ff6040600020541692386116ae565b1561170057565b608460405162461bcd60e51b815260206004820152602560248201527f4552433732313a207472616e736665722066726f6d20696e636f72726563742060448201527f6f776e65720000000000000000000000000000000000000000000000000000006064820152fd5b90611792916117788461150f565b916001600160a01b039384938480941694859116146116f9565b1691821561182857816117af916117a88661150f565b16146116f9565b7fddf252ad1be2c89b69c2b068fc378daa952ba7f163c4a11628f55a4df523b3ef60008481526004602052604081206001600160a01b03199081815416905583825260036020526040822060001981540190558482526040822060018154019055858252600260205284604083209182541617905580a4565b608460405162461bcd60e51b8152602060048201526024808201527f4552433732313a207472616e7366657220746f20746865207a65726f2061646460448201527f72657373000000000000000000000000000000000000000000000000000000006064820152fd5b3d156118bc573d906118a2826113fb565b916118b060405193846113d9565b82523d6000602084013e565b606090565b9091600091803b15611a35576119146020916001600160a01b039385604051958680958194630a85bd0160e11b9b8c8452336004850152856024850152604484015260806064840152608483019061134d565b0393165af1908290826119ce575b50506119a857611930611891565b805190816119a35760405162461bcd60e51b815260206004820152603260248201527f4552433732313a207472616e7366657220746f206e6f6e20455243373231526560448201527f63656976657220696d706c656d656e74657200000000000000000000000000006064820152608490fd5b602001fd5b7fffffffff00000000000000000000000000000000000000000000000000000000161490565b909192506020813d8211611a2d575b816119ea602093836113d9565b81010312611a295751907fffffffff0000000000000000000000000000000000000000000000000000000082168203611a265750903880611922565b80fd5b5080fd5b3d91506119dd565b50505050600190565b91926000929190813b15611a95576020916119149185604051958680958194630a85bd0160e11b9b8c84523360048501526001600160a01b038095166024850152604484015260806064840152608483019061134d565b5050505050600190565b15611aa657565b606460405162461bcd60e51b815260206004820152601c60248201527f4552433732313a20746f6b656e20616c7265616479206d696e746564000000006044820152fdfea264697066735822122013281b3c9cf055b90fb7581b0e353836bd0ed7a4b67b48fe6c752575d673252b64736f6c63430008110033",
  "linkReferences": {},
  "deployedLinkReferences": {}
}