{
  "_format": "hh-sol-artifact-1",
  "contractName": "Petos",
  "sourceName": "Contracts/Petos.sol",
  "abi": [
    {
      "inputs": [
        {
          "internalType": "address payable",
          "name": "donationWallet",
          "type": "address"
        },
        {
          "internalType": "uint256",
          "name": "pOwner",
          "type": "uint256"
        },
        {
          "internalType": "uint256",
          "name": "prix",
          "type": "uint256"
        }
      ],
      "stateMutability": "nonpayable",
      "type": "constructor"
    },
    {
      "anonymous": false,
      "inputs": [
        {
          "indexed": true,
          "internalType": "address",
          "name": "owner",
          "type": "address"
        },
        {
          "indexed": true,
          "internalType": "address",
          "name": "approved",
          "type": "address"
        },
        {
          "indexed": true,
          "internalType": "uint256",
          "name": "tokenId",
          "type": "uint256"
        }
      ],
      "name": "Approval",
      "type": "event"
    },
    {
      "anonymous": false,
      "inputs": [
        {
          "indexed": true,
          "internalType": "address",
          "name": "owner",
          "type": "address"
        },
        {
          "indexed": true,
          "internalType": "address",
          "name": "operator",
          "type": "address"
        },
        {
          "indexed": false,
          "internalType": "bool",
          "name": "approved",
          "type": "bool"
        }
      ],
      "name": "ApprovalForAll",
      "type": "event"
    },
    {
      "anonymous": false,
      "inputs": [
        {
          "indexed": true,
          "internalType": "address",
          "name": "previousOwner",
          "type": "address"
        },
        {
          "indexed": true,
          "internalType": "address",
          "name": "newOwner",
          "type": "address"
        }
      ],
      "name": "OwnershipTransferred",
      "type": "event"
    },
    {
      "anonymous": false,
      "inputs": [
        {
          "indexed": true,
          "internalType": "address",
          "name": "from",
          "type": "address"
        },
        {
          "indexed": true,
          "internalType": "address",
          "name": "to",
          "type": "address"
        },
        {
          "indexed": true,
          "internalType": "uint256",
          "name": "tokenId",
          "type": "uint256"
        }
      ],
      "name": "Transfer",
      "type": "event"
    },
    {
      "inputs": [],
      "name": "_donationWallet",
      "outputs": [
        {
          "internalType": "address payable",
          "name": "",
          "type": "address"
        }
      ],
      "stateMutability": "view",
      "type": "function"
    },
    {
      "inputs": [],
      "name": "_pOwner",
      "outputs": [
        {
          "internalType": "uint256",
          "name": "",
          "type": "uint256"
        }
      ],
      "stateMutability": "view",
      "type": "function"
    },
    {
      "inputs": [
        {
          "internalType": "address",
          "name": "",
          "type": "address"
        }
      ],
      "name": "_pets",
      "outputs": [
        {
          "internalType": "bool",
          "name": "",
          "type": "bool"
        }
      ],
      "stateMutability": "view",
      "type": "function"
    },
    {
      "inputs": [],
      "name": "_prix",
      "outputs": [
        {
          "internalType": "uint256",
          "name": "",
          "type": "uint256"
        }
      ],
      "stateMutability": "view",
      "type": "function"
    },
    {
      "inputs": [
        {
          "internalType": "address",
          "name": "pet",
          "type": "address"
        }
      ],
      "name": "addPets",
      "outputs": [],
      "stateMutability": "nonpayable",
      "type": "function"
    },
    {
      "inputs": [
        {
          "internalType": "address",
          "name": "to",
          "type": "address"
        },
        {
          "internalType": "uint256",
          "name": "tokenId",
          "type": "uint256"
        }
      ],
      "name": "approve",
      "outputs": [],
      "stateMutability": "nonpayable",
      "type": "function"
    },
    {
      "inputs": [
        {
          "internalType": "address",
          "name": "owner",
          "type": "address"
        }
      ],
      "name": "balanceOf",
      "outputs": [
        {
          "internalType": "uint256",
          "name": "",
          "type": "uint256"
        }
      ],
      "stateMutability": "view",
      "type": "function"
    },
    {
      "inputs": [
        {
          "internalType": "address",
          "name": "pet",
          "type": "address"
        }
      ],
      "name": "deletePets",
      "outputs": [],
      "stateMutability": "nonpayable",
      "type": "function"
    },
    {
      "inputs": [
        {
          "internalType": "uint256",
          "name": "tokenId",
          "type": "uint256"
        }
      ],
      "name": "getApproved",
      "outputs": [
        {
          "internalType": "address",
          "name": "",
          "type": "address"
        }
      ],
      "stateMutability": "view",
      "type": "function"
    },
    {
      "inputs": [
        {
          "internalType": "address",
          "name": "owner",
          "type": "address"
        },
        {
          "internalType": "address",
          "name": "operator",
          "type": "address"
        }
      ],
      "name": "isApprovedForAll",
      "outputs": [
        {
          "internalType": "bool",
          "name": "",
          "type": "bool"
        }
      ],
      "stateMutability": "view",
      "type": "function"
    },
    {
      "inputs": [
        {
          "internalType": "address",
          "name": "pet",
          "type": "address"
        },
        {
          "internalType": "string[]",
          "name": "param",
          "type": "string[]"
        },
        {
          "internalType": "string",
          "name": "name",
          "type": "string"
        },
        {
          "internalType": "string",
          "name": "sex",
          "type": "string"
        },
        {
          "internalType": "uint256",
          "name": "birthday",
          "type": "uint256"
        }
      ],
      "name": "mint",
      "outputs": [],
      "stateMutability": "payable",
      "type": "function"
    },
    {
      "inputs": [],
      "name": "name",
      "outputs": [
        {
          "internalType": "string",
          "name": "",
          "type": "string"
        }
      ],
      "stateMutability": "view",
      "type": "function"
    },
    {
      "inputs": [],
      "name": "nftMinted",
      "outputs": [
        {
          "internalType": "uint256",
          "name": "_value",
          "type": "uint256"
        }
      ],
      "stateMutability": "view",
      "type": "function"
    },
    {
      "inputs": [],
      "name": "owner",
      "outputs": [
        {
          "internalType": "address",
          "name": "",
          "type": "address"
        }
      ],
      "stateMutability": "view",
      "type": "function"
    },
    {
      "inputs": [
        {
          "internalType": "uint256",
          "name": "tokenId",
          "type": "uint256"
        }
      ],
      "name": "ownerOf",
      "outputs": [
        {
          "internalType": "address",
          "name": "",
          "type": "address"
        }
      ],
      "stateMutability": "view",
      "type": "function"
    },
    {
      "inputs": [],
      "name": "renounceOwnership",
      "outputs": [],
      "stateMutability": "nonpayable",
      "type": "function"
    },
    {
      "inputs": [
        {
          "internalType": "address",
          "name": "from",
          "type": "address"
        },
        {
          "internalType": "address",
          "name": "to",
          "type": "address"
        },
        {
          "internalType": "uint256",
          "name": "tokenId",
          "type": "uint256"
        }
      ],
      "name": "safeTransferFrom",
      "outputs": [],
      "stateMutability": "nonpayable",
      "type": "function"
    },
    {
      "inputs": [
        {
          "internalType": "address",
          "name": "from",
          "type": "address"
        },
        {
          "internalType": "address",
          "name": "to",
          "type": "address"
        },
        {
          "internalType": "uint256",
          "name": "tokenId",
          "type": "uint256"
        },
        {
          "internalType": "bytes",
          "name": "data",
          "type": "bytes"
        }
      ],
      "name": "safeTransferFrom",
      "outputs": [],
      "stateMutability": "nonpayable",
      "type": "function"
    },
    {
      "inputs": [
        {
          "internalType": "address",
          "name": "operator",
          "type": "address"
        },
        {
          "internalType": "bool",
          "name": "approved",
          "type": "bool"
        }
      ],
      "name": "setApprovalForAll",
      "outputs": [],
      "stateMutability": "nonpayable",
      "type": "function"
    },
    {
      "inputs": [
        {
          "internalType": "address payable",
          "name": "donationWallet",
          "type": "address"
        }
      ],
      "name": "setDonation",
      "outputs": [],
      "stateMutability": "nonpayable",
      "type": "function"
    },
    {
      "inputs": [
        {
          "internalType": "uint256",
          "name": "newPrix",
          "type": "uint256"
        }
      ],
      "name": "setPrix",
      "outputs": [],
      "stateMutability": "nonpayable",
      "type": "function"
    },
    {
      "inputs": [
        {
          "internalType": "bytes4",
          "name": "interfaceId",
          "type": "bytes4"
        }
      ],
      "name": "supportsInterface",
      "outputs": [
        {
          "internalType": "bool",
          "name": "",
          "type": "bool"
        }
      ],
      "stateMutability": "view",
      "type": "function"
    },
    {
      "inputs": [],
      "name": "symbol",
      "outputs": [
        {
          "internalType": "string",
          "name": "",
          "type": "string"
        }
      ],
      "stateMutability": "view",
      "type": "function"
    },
    {
      "inputs": [
        {
          "internalType": "uint256",
          "name": "tokenId",
          "type": "uint256"
        }
      ],
      "name": "tokenURI",
      "outputs": [
        {
          "internalType": "string",
          "name": "",
          "type": "string"
        }
      ],
      "stateMutability": "view",
      "type": "function"
    },
    {
      "inputs": [
        {
          "internalType": "address",
          "name": "from",
          "type": "address"
        },
        {
          "internalType": "address",
          "name": "to",
          "type": "address"
        },
        {
          "internalType": "uint256",
          "name": "tokenId",
          "type": "uint256"
        }
      ],
      "name": "transferFrom",
      "outputs": [],
      "stateMutability": "nonpayable",
      "type": "function"
    },
    {
      "inputs": [
        {
          "internalType": "address",
          "name": "newOwner",
          "type": "address"
        }
      ],
      "name": "transferOwnership",
      "outputs": [],
      "stateMutability": "nonpayable",
      "type": "function"
    },
    {
      "inputs": [],
      "name": "withdraw",
      "outputs": [],
      "stateMutability": "payable",
      "type": "function"
    }
  ],
  "bytecode": "0x608034620003ac576001600160401b0390601f90601f1962001ee338819003848101831684019190868311858410176200039657808592606094604052833981010312620003ac5781516001600160a01b03948582169291839003620003ac576020906040828601519501519562000076620003b1565b9260058452645065746f7360d81b8185015262000092620003b1565b90600382526250545360e81b8183015284519584871162000396576000968754966001978881811c911680156200038b575b85821014620003775790818784931162000324575b508490878311600114620002c3578a92620002b7575b5050600019600383901b1c191690871b1787555b8251948511620002a35785548681811c9116801562000298575b8382101462000284579081858796959493116200022b575b5081938511600114620001c65750508592620001ba575b5050600019600383901b1c191690821b1790555b60075460018060a01b03199133838316176007557f8be0079c531659141344cd1fd0a4f28419497f9722a3daafe3b4186f6b6457e0604051973393169180a36009541617600955600a55600b55611b119081620003d28239f35b0151905038806200014c565b869593929193168588528388209388905b828210620002115750508411620001f7575b505050811b01905562000160565b015160001960f88460031b161c19169055388080620001e9565b8484015186558897909501949384019390810190620001d7565b9091929394508688528288208580880160051c8201928589106200027a575b9188978a9297969594930160051c01915b8281106200026b57505062000135565b8a81558897508991016200025b565b925081926200024a565b634e487b7160e01b88526022600452602488fd5b90607f16906200011d565b634e487b7160e01b87526041600452602487fd5b015190503880620000ef565b90848a9416918b8052868c20928c5b888282106200030d5750508411620002f3575b505050811b01875562000103565b015160001960f88460031b161c19169055388080620002e5565b8385015186558d97909501949384019301620002d2565b909150898052848a208780850160051c8201928786106200036d575b918b91869594930160051c01915b8281106200035e575050620000d9565b8c81558594508b91016200034e565b9250819262000340565b634e487b7160e01b8a52602260045260248afd5b90607f1690620000c4565b634e487b7160e01b600052604160045260246000fd5b600080fd5b60408051919082016001600160401b03811183821017620003965760405256fe608080604052600436101561001357600080fd5b60003560e01c90816301ffc9a714611236575080630389a408146111f157806306fdde031461114e578063081812fc14611130578063095ea7b314610f9c578063172798a214610f7e57806323b872dd14610f5a578063304c6c9214610f1b5780633651f5e414610efd578063373c885b14610edf5780633ccfd60b14610e7057806342842e0e14610e3d5780634bd9564c146108365780636352211e1461080757806368e432b21461077a57806370a08231146106d0578063715018a61461067557806373195e9d146106335780638da5cb5b1461060c57806395d89b411461052d578063a22cb4651461045c578063a37f4ea914610435578063b88d4fde146103ad578063bdd7f2951461038c578063c87b56dd1461027c578063e985e9c5146102255763f2fde38b1461014857600080fd5b3461022057602036600319011261022057610161611305565b61016961145d565b6001600160a01b038091169081156101b657600754826001600160a01b0319821617600755167f8be0079c531659141344cd1fd0a4f28419497f9722a3daafe3b4186f6b6457e0600080a3005b608460405162461bcd60e51b815260206004820152602660248201527f4f776e61626c653a206e6577206f776e657220697320746865207a65726f206160448201527f64647265737300000000000000000000000000000000000000000000000000006064820152fd5b600080fd5b346102205760403660031901126102205761023e611305565b61024661131b565b906001600160a01b03809116600052600560205260406000209116600052602052602060ff604060002054166040519015158152f35b3461022057602080600319360112610220576004356102b96102b48260005260026020526001600160a01b0360406000205416151590565b6114b5565b600052600681526040600020906040519182600082546102d881611522565b9384845260019186838216918260001461036a57505060011461032b575b5050610304925003836113ca565b6000604051610312816113ae565b52610327604051928284938452830190611354565b0390f35b85925060005281600020906000915b858310610352575050610304935082010185806102f6565b8054838901850152879450869390920191810161033a565b925093505061030494915060ff191682840152151560051b82010185806102f6565b34610220576020366003190112610220576103a561145d565b600435600b55005b34610220576080366003190112610220576103c6611305565b6103ce61131b565b906064359060443567ffffffffffffffff83116102205736602384011215610220576104339361040b61042e943690602481600401359101611408565b9261041e610419843361167c565b611599565b61042983838361175b565b611a2f565b61160a565b005b346102205760003660031901126102205760206001600160a01b0360095416604051908152f35b3461022057604036600319011261022057610475611305565b60243590811515809203610220576001600160a01b0316908133146104e957336000526005602052604060002082600052602052604060002060ff1981541660ff83161790556040519081527f17307eab39ab6107e8899845ad3d59bd9653f200f220920489ca2b5937696c3160203392a3005b606460405162461bcd60e51b815260206004820152601960248201527f4552433732313a20617070726f766520746f2063616c6c6572000000000000006044820152fd5b34610220576000366003190112610220576040516000600180549061055182611522565b808552918181169081156105e5575060011461058c575b61032784610578818603826113ca565b604051918291602083526020830190611354565b600081815292507fb10e2d527612073b26eecdfd717e6a320cf44b4afac2b0732d9fcbe2b7fa0cf65b8284106105cd57505050810160200161057882610568565b805460208587018101919091529093019281016105b5565b60ff191660208087019190915292151560051b850190920192506105789150839050610568565b346102205760003660031901126102205760206001600160a01b0360075416604051908152f35b34610220576020366003190112610220576001600160a01b03610654611305565b61065c61145d565b166000908152600c60205260409020805460ff19169055005b346102205760003660031901126102205761068e61145d565b60006001600160a01b036007546001600160a01b03198116600755167f8be0079c531659141344cd1fd0a4f28419497f9722a3daafe3b4186f6b6457e08280a3005b34610220576020366003190112610220576001600160a01b036106f1611305565b1680156107105760005260036020526020604060002054604051908152f35b608460405162461bcd60e51b815260206004820152602960248201527f4552433732313a2061646472657373207a65726f206973206e6f74206120766160448201527f6c6964206f776e657200000000000000000000000000000000000000000000006064820152fd5b34610220576020366003190112610220576004356001600160a01b038116809103610220576107a761145d565b80156107c3576001600160a01b03196009541617600955600080f35b606460405162461bcd60e51b815260206004820152601660248201527f416464726573732063616e6e6f74206265207a65726f000000000000000000006044820152fd5b34610220576020366003190112610220576020610825600435611500565b6001600160a01b0360405191168152f35b60a03660031901126102205761084a611305565b60243567ffffffffffffffff811161022057366023820112156102205780600401359167ffffffffffffffff8311610c04578260051b916040519361089260208501866113ca565b8452602084019060248294820101903682116102205760248101925b828410610e0d575050505060443567ffffffffffffffff8111610220576108d990369060040161143f565b9160643567ffffffffffffffff8111610220576108fa90369060040161143f565b906001600160a01b038316600052600c602052600160ff60406000205416151503610dc957600b543410610d855760016008540193846008556040516020810181811067ffffffffffffffff821117610c0457604052600081523315610d4157938593610a1461042e89949761098f6109898960005260026020526001600160a01b0360406000205416151590565b15611a90565b6109b26109898960005260026020526001600160a01b0360406000205416151590565b3360005260036020526040600020600181540190558760005260026020526040600020336001600160a01b0319825416179055873360007fddf252ad1be2c89b69c2b068fc378daa952ba7f163c4a11628f55a4df523b3ef8180a487336118b2565b6040519586937fdc2befe000000000000000000000000000000000000000000000000000000000855260a485019087600487015260a060248701525180915260c485019060c48160051b87010196916000905b828210610d0c575050505083610aaa8193610a986000986001600160a01b0395600319868303016044870152611354565b83810360031901606485015290611354565b60843560848301520392165afa918215610d0057600092610c84575b50610ae78160005260026020526001600160a01b0360406000205416151590565b15610c1a5760005260066020526040600020815167ffffffffffffffff8111610c0457610b148254611522565b601f8111610bbc575b50602092601f8211600114610b5b5792819293600092610b50575b5050600019600383901b1c191660019190911b179055005b015190508380610b38565b601f198216938360005260206000209160005b868110610ba45750836001959610610b8b575b505050811b019055005b015160001960f88460031b161c19169055838080610b81565b91926020600181928685015181550194019201610b6e565b826000526020600020601f830160051c81019160208410610bfa575b601f0160051c01905b818110610bee5750610b1d565b60008155600101610be1565b9091508190610bd8565b634e487b7160e01b600052604160045260246000fd5b608460405162461bcd60e51b815260206004820152602e60248201527f45524337323155524953746f726167653a2055524920736574206f66206e6f6e60448201527f6578697374656e7420746f6b656e0000000000000000000000000000000000006064820152fd5b9091503d806000833e610c9781836113ca565b8101906020818303126102205780519067ffffffffffffffff8211610220570181601f82011215610220578051610ccd816113ec565b92610cdb60405194856113ca565b8184526020828401011161022057610cf99160208085019101611331565b9082610ac6565b6040513d6000823e3d90fd5b919394966020610d2d60019395989a829360c3199082030186528951611354565b970192019201899694939192979597610a67565b606460405162461bcd60e51b815260206004820152602060248201527f4552433732313a206d696e7420746f20746865207a65726f20616464726573736044820152fd5b606460405162461bcd60e51b815260206004820152600f60248201527f4e6f20456e6f756768204d6f6e657900000000000000000000000000000000006044820152fd5b606460405162461bcd60e51b815260206004820152601660248201527f5468697320506574206e6f7420696e2053797374656d000000000000000000006044820152fd5b833567ffffffffffffffff811161022057602091610e3283926024369187010161143f565b8152019301926108ae565b346102205761043361042e610e5136611379565b9060405192610e5f846113ae565b6000845261041e610419843361167c565b60003660031901126102205747600a548015610ec9576000808080936001600160a01b03950485600754165af1610ea5611882565b5015610220576000808080936009541647905af1610ec1611882565b501561022057005b634e487b7160e01b600052601260045260246000fd5b34610220576000366003190112610220576020600b54604051908152f35b34610220576000366003190112610220576020600854604051908152f35b34610220576020366003190112610220576001600160a01b03610f3c611305565b16600052600c602052602060ff604060002054166040519015158152f35b3461022057610433610f6b36611379565b91610f79610419843361167c565b61175b565b34610220576000366003190112610220576020600a54604051908152f35b3461022057604036600319011261022057610fb5611305565b602435906001600160a01b038080610fcc85611500565b169216918083146110c6578033149081156110a1575b5015611037578260005260046020526040600020826001600160a01b031982541617905561100f83611500565b167f8c5be1e5ebec7d5bd14f71427d1e84f3dd0314c0f7b2291e5b200ac8c7c3b925600080a4005b608460405162461bcd60e51b815260206004820152603d60248201527f4552433732313a20617070726f76652063616c6c6572206973206e6f7420746f60448201527f6b656e206f776e6572206f7220617070726f76656420666f7220616c6c0000006064820152fd5b9050600052600560205260406000203360005260205260ff6040600020541684610fe2565b608460405162461bcd60e51b815260206004820152602160248201527f4552433732313a20617070726f76616c20746f2063757272656e74206f776e6560448201527f72000000000000000000000000000000000000000000000000000000000000006064820152fd5b3461022057602036600319011261022057602061082560043561155c565b34610220576000366003190112610220576040516000805461116f81611522565b808452906001908181169081156105e557506001146111985761032784610578818603826113ca565b600080805292507f290decd9548b62a8d60345a988386fc84ba6bc95484008f6362f93160ef3e5635b8284106111d957505050810160200161057882610568565b805460208587018101919091529093019281016111c1565b34610220576020366003190112610220576001600160a01b03611212611305565b61121a61145d565b166000908152600c60205260409020805460ff19166001179055005b3461022057602036600319011261022057600435907fffffffff00000000000000000000000000000000000000000000000000000000821680920361022057817f80ac58cd00000000000000000000000000000000000000000000000000000000602093149081156112db575b81156112b1575b5015158152f35b7f01ffc9a700000000000000000000000000000000000000000000000000000000915014836112aa565b7f5b5e139f00000000000000000000000000000000000000000000000000000000811491506112a3565b600435906001600160a01b038216820361022057565b602435906001600160a01b038216820361022057565b60005b8381106113445750506000910152565b8181015183820152602001611334565b9060209161136d81518092818552858086019101611331565b601f01601f1916010190565b6060906003190112610220576001600160a01b0390600435828116810361022057916024359081168103610220579060443590565b6020810190811067ffffffffffffffff821117610c0457604052565b90601f8019910116810190811067ffffffffffffffff821117610c0457604052565b67ffffffffffffffff8111610c0457601f01601f191660200190565b929192611414826113ec565b9161142260405193846113ca565b829481845281830111610220578281602093846000960137010152565b9080601f830112156102205781602061145a93359101611408565b90565b6001600160a01b0360075416330361147157565b606460405162461bcd60e51b815260206004820152602060248201527f4f776e61626c653a2063616c6c6572206973206e6f7420746865206f776e65726044820152fd5b156114bc57565b606460405162461bcd60e51b815260206004820152601860248201527f4552433732313a20696e76616c696420746f6b656e20494400000000000000006044820152fd5b60005260026020526001600160a01b036040600020541661145a8115156114b5565b90600182811c92168015611552575b602083101461153c57565b634e487b7160e01b600052602260045260246000fd5b91607f1691611531565b61157f6102b48260005260026020526001600160a01b0360406000205416151590565b60005260046020526001600160a01b036040600020541690565b156115a057565b608460405162461bcd60e51b815260206004820152602d60248201527f4552433732313a2063616c6c6572206973206e6f7420746f6b656e206f776e6560448201527f72206f7220617070726f766564000000000000000000000000000000000000006064820152fd5b1561161157565b60405162461bcd60e51b815260206004820152603260248201527f4552433732313a207472616e7366657220746f206e6f6e20455243373231526560448201527f63656976657220696d706c656d656e74657200000000000000000000000000006064820152608490fd5b906001600160a01b03808061169084611500565b169316918383149384156116c3575b5083156116ad575b50505090565b6116b99192935061155c565b16143880806116a7565b909350600052600560205260406000208260005260205260ff60406000205416923861169f565b156116f157565b608460405162461bcd60e51b815260206004820152602560248201527f4552433732313a207472616e736665722066726f6d20696e636f72726563742060448201527f6f776e65720000000000000000000000000000000000000000000000000000006064820152fd5b906117839161176984611500565b916001600160a01b039384938480941694859116146116ea565b1691821561181957816117a09161179986611500565b16146116ea565b7fddf252ad1be2c89b69c2b068fc378daa952ba7f163c4a11628f55a4df523b3ef60008481526004602052604081206001600160a01b03199081815416905583825260036020526040822060001981540190558482526040822060018154019055858252600260205284604083209182541617905580a4565b608460405162461bcd60e51b8152602060048201526024808201527f4552433732313a207472616e7366657220746f20746865207a65726f2061646460448201527f72657373000000000000000000000000000000000000000000000000000000006064820152fd5b3d156118ad573d90611893826113ec565b916118a160405193846113ca565b82523d6000602084013e565b606090565b9091600091803b15611a26576119056020916001600160a01b039385604051958680958194630a85bd0160e11b9b8c84523360048501528560248501526044840152608060648401526084830190611354565b0393165af1908290826119bf575b505061199957611921611882565b805190816119945760405162461bcd60e51b815260206004820152603260248201527f4552433732313a207472616e7366657220746f206e6f6e20455243373231526560448201527f63656976657220696d706c656d656e74657200000000000000000000000000006064820152608490fd5b602001fd5b7fffffffff00000000000000000000000000000000000000000000000000000000161490565b909192506020813d8211611a1e575b816119db602093836113ca565b81010312611a1a5751907fffffffff0000000000000000000000000000000000000000000000000000000082168203611a175750903880611913565b80fd5b5080fd5b3d91506119ce565b50505050600190565b91926000929190813b15611a86576020916119059185604051958680958194630a85bd0160e11b9b8c84523360048501526001600160a01b0380951660248501526044840152608060648401526084830190611354565b5050505050600190565b15611a9757565b606460405162461bcd60e51b815260206004820152601c60248201527f4552433732313a20746f6b656e20616c7265616479206d696e746564000000006044820152fdfea2646970667358221220432a7c4561cc0872d1bb365da789087b1f239a9dcd55dea9d6b967b15eb16f5564736f6c63430008110033",
  "linkReferences": {},
  "deployedLinkReferences": {}
}